{
  "address": "0x88f2bA8b39f90E79641BCC4608743ABC0dC52324",
  "abi": [
    {
      "inputs": [
        {
          "internalType": "address",
          "name": "_owner",
          "type": "address"
        },
        {
          "internalType": "string",
          "name": "_name",
          "type": "string"
        },
        {
          "internalType": "string",
          "name": "_description",
          "type": "string"
        },
        {
          "internalType": "address[]",
          "name": "_assignees",
          "type": "address[]"
        }
      ],
      "name": "addContract",
      "outputs": [],
      "stateMutability": "nonpayable",
      "type": "function"
    },
    {
      "inputs": [
        {
          "internalType": "address",
          "name": "_assignee",
          "type": "address"
        },
        {
          "internalType": "address",
          "name": "_owner",
          "type": "address"
        }
      ],
      "name": "assignContract",
      "outputs": [],
      "stateMutability": "nonpayable",
      "type": "function"
    },
    {
      "inputs": [
        {
          "internalType": "address",
          "name": "",
          "type": "address"
        },
        {
          "internalType": "uint256",
          "name": "",
          "type": "uint256"
        }
      ],
      "name": "assigneesContractList",
      "outputs": [
        {
          "internalType": "uint256",
          "name": "",
          "type": "uint256"
        }
      ],
      "stateMutability": "view",
      "type": "function"
    },
    {
      "inputs": [
        {
          "internalType": "uint256",
          "name": "",
          "type": "uint256"
        }
      ],
      "name": "contracts",
      "outputs": [
        {
          "internalType": "uint256",
          "name": "index",
          "type": "uint256"
        },
        {
          "internalType": "bool",
          "name": "status",
          "type": "bool"
        },
        {
          "internalType": "string",
          "name": "name",
          "type": "string"
        },
        {
          "internalType": "string",
          "name": "description",
          "type": "string"
        },
        {
          "internalType": "address",
          "name": "owner",
          "type": "address"
        }
      ],
      "stateMutability": "view",
      "type": "function"
    },
    {
      "inputs": [
        {
          "internalType": "address",
          "name": "_assignee",
          "type": "address"
        }
      ],
      "name": "getCompleteContracts",
      "outputs": [
        {
          "components": [
            {
              "internalType": "uint256",
              "name": "index",
              "type": "uint256"
            },
            {
              "internalType": "bool",
              "name": "status",
              "type": "bool"
            },
            {
              "internalType": "string",
              "name": "name",
              "type": "string"
            },
            {
              "internalType": "string",
              "name": "description",
              "type": "string"
            },
            {
              "internalType": "bool[]",
              "name": "assigns",
              "type": "bool[]"
            },
            {
              "internalType": "address",
              "name": "owner",
              "type": "address"
            },
            {
              "internalType": "address[]",
              "name": "assignee",
              "type": "address[]"
            }
          ],
          "internalType": "struct YourContract.contractR[]",
          "name": "",
          "type": "tuple[]"
        }
      ],
      "stateMutability": "view",
      "type": "function"
    },
    {
      "inputs": [
        {
          "internalType": "address",
          "name": "_assignee",
          "type": "address"
        }
      ],
      "name": "getContracts",
      "outputs": [
        {
          "components": [
            {
              "internalType": "uint256",
              "name": "index",
              "type": "uint256"
            },
            {
              "internalType": "bool",
              "name": "status",
              "type": "bool"
            },
            {
              "internalType": "string",
              "name": "name",
              "type": "string"
            },
            {
              "internalType": "string",
              "name": "description",
              "type": "string"
            },
            {
              "internalType": "bool[]",
              "name": "assigns",
              "type": "bool[]"
            },
            {
              "internalType": "address",
              "name": "owner",
              "type": "address"
            },
            {
              "internalType": "address[]",
              "name": "assignee",
              "type": "address[]"
            }
          ],
          "internalType": "struct YourContract.contractR[]",
          "name": "",
          "type": "tuple[]"
        }
      ],
      "stateMutability": "view",
      "type": "function"
    },
    {
      "inputs": [
        {
          "internalType": "address",
          "name": "_assignee",
          "type": "address"
        }
      ],
      "name": "getPendentContracts",
      "outputs": [
        {
          "components": [
            {
              "internalType": "uint256",
              "name": "index",
              "type": "uint256"
            },
            {
              "internalType": "bool",
              "name": "status",
              "type": "bool"
            },
            {
              "internalType": "string",
              "name": "name",
              "type": "string"
            },
            {
              "internalType": "string",
              "name": "description",
              "type": "string"
            },
            {
              "internalType": "bool[]",
              "name": "assigns",
              "type": "bool[]"
            },
            {
              "internalType": "address",
              "name": "owner",
              "type": "address"
            },
            {
              "internalType": "address[]",
              "name": "assignee",
              "type": "address[]"
            }
          ],
          "internalType": "struct YourContract.contractR[]",
          "name": "",
          "type": "tuple[]"
        }
      ],
      "stateMutability": "view",
      "type": "function"
    },
    {
      "inputs": [
        {
          "internalType": "address",
          "name": "",
          "type": "address"
        },
        {
          "internalType": "uint256",
          "name": "",
          "type": "uint256"
        }
      ],
      "name": "ownersContractList",
      "outputs": [
        {
          "internalType": "uint256",
          "name": "",
          "type": "uint256"
        }
      ],
      "stateMutability": "view",
      "type": "function"
    },
    {
      "inputs": [
        {
          "internalType": "address",
          "name": "_assignee",
          "type": "address"
        },
        {
          "internalType": "address",
          "name": "_owner",
          "type": "address"
        }
      ],
      "name": "verifyStatus",
      "outputs": [
        {
          "internalType": "bool",
          "name": "",
          "type": "bool"
        }
      ],
      "stateMutability": "view",
      "type": "function"
    }
  ],
  "transactionHash": "0xbc3d0a7ba7d570a7d88bb33e43aab15fcebcaf90fce1520b970dee002b6d20a8",
  "args": [],
  "numDeployments": 1,
  "solcInputHash": "106dd194cd6bf7130e8e8305910acbf0",
  "bytecode": "0x60806040526000805534801561001457600080fd5b50611c37806100246000396000f3fe608060405234801561001057600080fd5b50600436106100935760003560e01c80637beb94f3116100665780637beb94f31461011d5780638644326614610130578063acc861de14610151578063b19f9a5114610164578063fcbeb1951461017757600080fd5b8063213fe2b714610098578063474da79a146100c15780634b0ce89d146100e557806374978457146100fa575b600080fd5b6100ab6100a636600461162c565b61018a565b6040516100b8919061170a565b60405180910390f35b6100d46100cf3660046117fa565b6104f6565b6040516100b8959493929190611813565b6100f86100f3366004611861565b610643565b005b61010d610108366004611861565b6109d6565b60405190151581526020016100b8565b6100ab61012b36600461162c565b610b43565b61014361013e366004611894565b610ee3565b6040519081526020016100b8565b6100ab61015f36600461162c565b610f14565b6100f8610172366004611975565b6112b3565b610143610185366004611894565b61149d565b6001600160a01b03811660009081526003602090815260408083208054825181850281018501909352808352606094938301828280156101e957602002820191906000526020600020905b8154815260200190600101908083116101d5575b505050505090506000815167ffffffffffffffff81111561020c5761020c6118be565b60405190808252806020026020018201604052801561024557816020015b6102326114b9565b81526020019060019003908161022a5790505b50905060005b82518110156104ee576001600084838151811061026a5761026a611a7c565b602002602001015181526020019081526020016000206040518060e0016040529081600082015481526020016001820160009054906101000a900460ff161515151581526020016002820180546102c090611a92565b80601f01602080910402602001604051908101604052809291908181526020018280546102ec90611a92565b80156103395780601f1061030e57610100808354040283529160200191610339565b820191906000526020600020905b81548152906001019060200180831161031c57829003601f168201915b5050505050815260200160038201805461035290611a92565b80601f016020809104026020016040519081016040528092919081815260200182805461037e90611a92565b80156103cb5780601f106103a0576101008083540402835291602001916103cb565b820191906000526020600020905b8154815290600101906020018083116103ae57829003601f168201915b505050505081526020016004820180548060200260200160405190810160405280929190818152602001828054801561044357602002820191906000526020600020906000905b825461010083900a900460ff1615158152602060019283018181049485019490930390920291018084116104125790505b505050918352505060058201546001600160a01b031660208083019190915260068301805460408051828502810185018252828152940193928301828280156104b557602002820191906000526020600020905b81546001600160a01b03168152600190910190602001808311610497575b5050505050815250508282815181106104d0576104d0611a7c565b602002602001018190525080806104e690611acc565b91505061024b565b509392505050565b600160208190526000918252604090912080549181015460028201805460ff909216929161052390611a92565b80601f016020809104026020016040519081016040528092919081815260200182805461054f90611a92565b801561059c5780601f106105715761010080835404028352916020019161059c565b820191906000526020600020905b81548152906001019060200180831161057f57829003601f168201915b5050505050908060030180546105b190611a92565b80601f01602080910402602001604051908101604052809291908181526020018280546105dd90611a92565b801561062a5780601f106105ff5761010080835404028352916020019161062a565b820191906000526020600020905b81548152906001019060200180831161060d57829003601f168201915b505050600590930154919250506001600160a01b031685565b6001600160a01b0382166000908152600360209081526040808320805482518185028101850190935280835291929091908301828280156106a357602002820191906000526020600020905b81548152602001906001019080831161068f575b50505050509050816001600160a01b0316836001600160a01b03160361084d5760005b815181101561084757836001600160a01b0316600160008484815181106106ef576106ef611a7c565b6020908102919091018101518252810191909152604001600020600501546001600160a01b03160361083557600180600084848151811061073257610732611a7c565b6020026020010151815260200190815260200160002060040160008154811061075d5761075d611a7c565b90600052602060002090602091828204019190066101000a81548160ff0219169083151502179055506001600083838151811061079c5761079c611a7c565b602002602001015181526020019081526020016000206004016001815481106107c7576107c7611a7c565b90600052602060002090602091828204019190069054906101000a900460ff16156108355760006001600084848151811061080457610804611a7c565b6020026020010151815260200190815260200160002060010160006101000a81548160ff0219169083151502179055505b8061083f81611acc565b9150506106c6565b50505050565b60005b815181101561084757826001600160a01b03166001600084848151811061087957610879611a7c565b6020908102919091018101518252810191909152604001600020600501546001600160a01b0316036109bf5760018060008484815181106108bc576108bc611a7c565b602002602001015181526020019081526020016000206004016001815481106108e7576108e7611a7c565b90600052602060002090602091828204019190066101000a81548160ff0219169083151502179055506001600083838151811061092657610926611a7c565b6020026020010151815260200190815260200160002060040160008154811061095157610951611a7c565b90600052602060002090602091828204019190069054906101000a900460ff16156109bf5760006001600084848151811061098e5761098e611a7c565b6020026020010151815260200190815260200160002060010160006101000a81548160ff0219169083151502179055505b806109c981611acc565b915050610850565b505050565b6001600160a01b038216600090815260036020908152604080832080548251818502810185019093528083528493830182828015610a3357602002820191906000526020600020905b815481526020019060010190808311610a1f575b5050505050905060005b8151811015610b3657836001600160a01b031660016000848481518110610a6657610a66611a7c565b6020908102919091018101518252810191909152604001600020600501546001600160a01b031603610b2457836001600160a01b031660016000848481518110610ab257610ab2611a7c565b6020908102919091018101518252810191909152604001600020600501546001600160a01b031603610b245760016000838381518110610af457610af4611a7c565b6020026020010151815260200190815260200160002060010160009054906101000a900460ff1692505050610b3d565b80610b2e81611acc565b915050610a3d565b5060019150505b92915050565b6001600160a01b0381166000908152600360209081526040808320805482518185028101850190935280835260609493830182828015610ba257602002820191906000526020600020905b815481526020019060010190808311610b8e575b505050505090506000815167ffffffffffffffff811115610bc557610bc56118be565b604051908082528060200260200182016040528015610bfe57816020015b610beb6114b9565b815260200190600190039081610be35790505b50905060005b82518110156104ee5760016000848381518110610c2357610c23611a7c565b60209081029190910181015182528101919091526040016000206001015460ff1615610ed15760016000848381518110610c5f57610c5f611a7c565b602002602001015181526020019081526020016000206040518060e0016040529081600082015481526020016001820160009054906101000a900460ff16151515158152602001600282018054610cb590611a92565b80601f0160208091040260200160405190810160405280929190818152602001828054610ce190611a92565b8015610d2e5780601f10610d0357610100808354040283529160200191610d2e565b820191906000526020600020905b815481529060010190602001808311610d1157829003601f168201915b50505050508152602001600382018054610d4790611a92565b80601f0160208091040260200160405190810160405280929190818152602001828054610d7390611a92565b8015610dc05780601f10610d9557610100808354040283529160200191610dc0565b820191906000526020600020905b815481529060010190602001808311610da357829003601f168201915b5050505050815260200160048201805480602002602001604051908101604052809291908181526020018280548015610e3857602002820191906000526020600020906000905b825461010083900a900460ff161515815260206001928301818104948501949093039092029101808411610e075790505b505050918352505060058201546001600160a01b03166020808301919091526006830180546040805182850281018501825282815294019392830182828015610eaa57602002820191906000526020600020905b81546001600160a01b03168152600190910190602001808311610e8c575b505050505081525050828281518110610ec557610ec5611a7c565b60200260200101819052505b80610edb81611acc565b915050610c04565b60036020528160005260406000208181548110610eff57600080fd5b90600052602060002001600091509150505481565b6001600160a01b0381166000908152600360209081526040808320805482518185028101850190935280835260609493830182828015610f7357602002820191906000526020600020905b815481526020019060010190808311610f5f575b505050505090506000815167ffffffffffffffff811115610f9657610f966118be565b604051908082528060200260200182016040528015610fcf57816020015b610fbc6114b9565b815260200190600190039081610fb45790505b50905060005b82518110156104ee5760016000848381518110610ff457610ff4611a7c565b60209081029190910181015182528101919091526040016000206001015460ff166112a1576001600084838151811061102f5761102f611a7c565b602002602001015181526020019081526020016000206040518060e0016040529081600082015481526020016001820160009054906101000a900460ff1615151515815260200160028201805461108590611a92565b80601f01602080910402602001604051908101604052809291908181526020018280546110b190611a92565b80156110fe5780601f106110d3576101008083540402835291602001916110fe565b820191906000526020600020905b8154815290600101906020018083116110e157829003601f168201915b5050505050815260200160038201805461111790611a92565b80601f016020809104026020016040519081016040528092919081815260200182805461114390611a92565b80156111905780601f1061116557610100808354040283529160200191611190565b820191906000526020600020905b81548152906001019060200180831161117357829003601f168201915b505050505081526020016004820180548060200260200160405190810160405280929190818152602001828054801561120857602002820191906000526020600020906000905b825461010083900a900460ff1615158152602060019283018181049485019490930390920291018084116111d75790505b505050918352505060058201546001600160a01b0316602080830191909152600683018054604080518285028101850182528281529401939283018282801561127a57602002820191906000526020600020905b81546001600160a01b0316815260019091019060200180831161125c575b50505050508152505082828151811061129557611295611a7c565b60200260200101819052505b806112ab81611acc565b915050610fd5565b6000805490806112c283611acc565b90915550506001600160a01b038416600081815260026020908152604080832083548154600181810184559286528486200155938352600382528220825481549485018255908352908220909201919091555b815181101561137f576003600083838151811061133457611334611a7c565b6020908102919091018101516001600160a01b03168252818101929092526040016000908120815481546001810183559183529290912001558061137781611acc565b915050611315565b506040805160e081018252600054815260016020820152808201859052606080820185905282516002808252918101909352909160808301918160200160208202803683370190505081526001600160a01b03861660208083019190915260409182018490526000805481526001808352908390208451815591840151908201805460ff19169115159190911790559082015160028201906114219082611b41565b50606082015160038201906114369082611b41565b5060808201518051611452916004840191602090910190611501565b5060a08201516005820180546001600160a01b0319166001600160a01b0390921691909117905560c082015180516114949160068401916020909101906115a6565b50505050505050565b60026020528160005260406000208181548110610eff57600080fd5b6040518060e001604052806000815260200160001515815260200160608152602001606081526020016060815260200160006001600160a01b03168152602001606081525090565b82805482825590600052602060002090601f016020900481019282156115965791602002820160005b8382111561156757835183826101000a81548160ff021916908315150217905550926020019260010160208160000104928301926001030261152a565b80156115945782816101000a81549060ff0219169055600101602081600001049283019260010302611567565b505b506115a29291506115fb565b5090565b828054828255906000526020600020908101928215611596579160200282015b8281111561159657825182546001600160a01b0319166001600160a01b039091161782556020909201916001909101906115c6565b5b808211156115a257600081556001016115fc565b80356001600160a01b038116811461162757600080fd5b919050565b60006020828403121561163e57600080fd5b61164782611610565b9392505050565b6000815180845260005b8181101561167457602081850181015186830182015201611658565b506000602082860101526020601f19601f83011685010191505092915050565b600081518084526020808501945080840160005b838110156116c65781511515875295820195908201906001016116a8565b509495945050505050565b600081518084526020808501945080840160005b838110156116c65781516001600160a01b0316875295820195908201906001016116e5565b60006020808301818452808551808352604092508286019150828160051b87010184880160005b838110156117ec57603f19898403018552815160e081518552888201511515898601528782015181898701526117698287018261164e565b91505060608083015186830382880152611783838261164e565b925050506080808301518683038288015261179e8382611694565b9250505060a0808301516117bc828801826001600160a01b03169052565b505060c080830151925085820381870152506117d881836116d1565b968901969450505090860190600101611731565b509098975050505050505050565b60006020828403121561180c57600080fd5b5035919050565b858152841515602082015260a06040820152600061183460a083018661164e565b8281036060840152611846818661164e565b91505060018060a01b03831660808301529695505050505050565b6000806040838503121561187457600080fd5b61187d83611610565b915061188b60208401611610565b90509250929050565b600080604083850312156118a757600080fd5b6118b083611610565b946020939093013593505050565b634e487b7160e01b600052604160045260246000fd5b604051601f8201601f1916810167ffffffffffffffff811182821017156118fd576118fd6118be565b604052919050565b600082601f83011261191657600080fd5b813567ffffffffffffffff811115611930576119306118be565b611943601f8201601f19166020016118d4565b81815284602083860101111561195857600080fd5b816020850160208301376000918101602001919091529392505050565b6000806000806080858703121561198b57600080fd5b61199485611610565b935060208086013567ffffffffffffffff808211156119b257600080fd5b6119be89838a01611905565b955060408801359150808211156119d457600080fd5b6119e089838a01611905565b945060608801359150808211156119f657600080fd5b818801915088601f830112611a0a57600080fd5b813581811115611a1c57611a1c6118be565b8060051b9150611a2d8483016118d4565b818152918301840191848101908b841115611a4757600080fd5b938501935b83851015611a6c57611a5d85611610565b82529385019390850190611a4c565b989b979a50959850505050505050565b634e487b7160e01b600052603260045260246000fd5b600181811c90821680611aa657607f821691505b602082108103611ac657634e487b7160e01b600052602260045260246000fd5b50919050565b600060018201611aec57634e487b7160e01b600052601160045260246000fd5b5060010190565b601f8211156109d157600081815260208120601f850160051c81016020861015611b1a5750805b601f850160051c820191505b81811015611b3957828155600101611b26565b505050505050565b815167ffffffffffffffff811115611b5b57611b5b6118be565b611b6f81611b698454611a92565b84611af3565b602080601f831160018114611ba45760008415611b8c5750858301515b600019600386901b1c1916600185901b178555611b39565b600085815260208120601f198616915b82811015611bd357888601518255948401946001909101908401611bb4565b5085821015611bf15787850151600019600388901b60f8161c191681555b5050505050600190811b0190555056fea2646970667358221220b3eee83b6599157ff888d8b4c2416f48156be16c3ada21cb95343514ccfb0aea64736f6c63430008110033",
  "devdoc": {
    "author": "BuidlGuidl",
    "kind": "dev",
    "methods": {},
    "version": 1
  },
  "userdoc": {
    "kind": "user",
    "methods": {},
    "notice": "A smart contract that allows changing a state variable of the contract and tracking the changes It also allows the owner to withdraw the Ether in the contract",
    "version": 1
  },
  "storageLayout": {
    "storage": [
      {
        "astId": 6,
        "contract": "contracts/YourContract.sol:YourContract",
        "label": "indexContract",
        "offset": 0,
        "slot": "0",
        "type": "t_uint256"
      },
      {
        "astId": 28,
        "contract": "contracts/YourContract.sol:YourContract",
        "label": "contracts",
        "offset": 0,
        "slot": "1",
        "type": "t_mapping(t_uint256,t_struct(contractR)23_storage)"
      },
      {
        "astId": 33,
        "contract": "contracts/YourContract.sol:YourContract",
        "label": "ownersContractList",
        "offset": 0,
        "slot": "2",
        "type": "t_mapping(t_address,t_array(t_uint256)dyn_storage)"
      },
      {
        "astId": 38,
        "contract": "contracts/YourContract.sol:YourContract",
        "label": "assigneesContractList",
        "offset": 0,
        "slot": "3",
        "type": "t_mapping(t_address,t_array(t_uint256)dyn_storage)"
      }
    ],
    "types": {
      "t_address": {
        "encoding": "inplace",
        "label": "address",
        "numberOfBytes": "20"
      },
      "t_array(t_address)dyn_storage": {
        "base": "t_address",
        "encoding": "dynamic_array",
        "label": "address[]",
        "numberOfBytes": "32"
      },
      "t_array(t_bool)dyn_storage": {
        "base": "t_bool",
        "encoding": "dynamic_array",
        "label": "bool[]",
        "numberOfBytes": "32"
      },
      "t_array(t_uint256)dyn_storage": {
        "base": "t_uint256",
        "encoding": "dynamic_array",
        "label": "uint256[]",
        "numberOfBytes": "32"
      },
      "t_bool": {
        "encoding": "inplace",
        "label": "bool",
        "numberOfBytes": "1"
      },
      "t_mapping(t_address,t_array(t_uint256)dyn_storage)": {
        "encoding": "mapping",
        "key": "t_address",
        "label": "mapping(address => uint256[])",
        "numberOfBytes": "32",
        "value": "t_array(t_uint256)dyn_storage"
      },
      "t_mapping(t_uint256,t_struct(contractR)23_storage)": {
        "encoding": "mapping",
        "key": "t_uint256",
        "label": "mapping(uint256 => struct YourContract.contractR)",
        "numberOfBytes": "32",
        "value": "t_struct(contractR)23_storage"
      },
      "t_string_storage": {
        "encoding": "bytes",
        "label": "string",
        "numberOfBytes": "32"
      },
      "t_struct(contractR)23_storage": {
        "encoding": "inplace",
        "label": "struct YourContract.contractR",
        "members": [
          {
            "astId": 8,
            "contract": "contracts/YourContract.sol:YourContract",
            "label": "index",
            "offset": 0,
            "slot": "0",
            "type": "t_uint256"
          },
          {
            "astId": 10,
            "contract": "contracts/YourContract.sol:YourContract",
            "label": "status",
            "offset": 0,
            "slot": "1",
            "type": "t_bool"
          },
          {
            "astId": 12,
            "contract": "contracts/YourContract.sol:YourContract",
            "label": "name",
            "offset": 0,
            "slot": "2",
            "type": "t_string_storage"
          },
          {
            "astId": 14,
            "contract": "contracts/YourContract.sol:YourContract",
            "label": "description",
            "offset": 0,
            "slot": "3",
            "type": "t_string_storage"
          },
          {
            "astId": 17,
            "contract": "contracts/YourContract.sol:YourContract",
            "label": "assigns",
            "offset": 0,
            "slot": "4",
            "type": "t_array(t_bool)dyn_storage"
          },
          {
            "astId": 19,
            "contract": "contracts/YourContract.sol:YourContract",
            "label": "owner",
            "offset": 0,
            "slot": "5",
            "type": "t_address"
          },
          {
            "astId": 22,
            "contract": "contracts/YourContract.sol:YourContract",
            "label": "assignee",
            "offset": 0,
            "slot": "6",
            "type": "t_array(t_address)dyn_storage"
          }
        ],
        "numberOfBytes": "224"
      },
      "t_uint256": {
        "encoding": "inplace",
        "label": "uint256",
        "numberOfBytes": "32"
      }
    }
  }
}