{
  "address": "0xc1d17BB0968A370A8Cf6157Bf2E1Bf3974156df5",
  "abi": [
    {
      "inputs": [
        {
          "internalType": "address",
          "name": "_owner",
          "type": "address"
        },
        {
          "internalType": "string",
          "name": "_name",
          "type": "string"
        },
        {
          "internalType": "string",
          "name": "_description",
          "type": "string"
        },
        {
          "internalType": "address[]",
          "name": "_assignees",
          "type": "address[]"
        },
        {
          "internalType": "string",
          "name": "_link",
          "type": "string"
        }
      ],
      "name": "addContract",
      "outputs": [],
      "stateMutability": "nonpayable",
      "type": "function"
    },
    {
      "inputs": [
        {
          "internalType": "address",
          "name": "_assignee",
          "type": "address"
        },
        {
          "internalType": "address",
          "name": "_owner",
          "type": "address"
        }
      ],
      "name": "assignContract",
      "outputs": [],
      "stateMutability": "nonpayable",
      "type": "function"
    },
    {
      "inputs": [
        {
          "internalType": "address",
          "name": "",
          "type": "address"
        },
        {
          "internalType": "uint256",
          "name": "",
          "type": "uint256"
        }
      ],
      "name": "assigneesContractList",
      "outputs": [
        {
          "internalType": "uint256",
          "name": "",
          "type": "uint256"
        }
      ],
      "stateMutability": "view",
      "type": "function"
    },
    {
      "inputs": [
        {
          "internalType": "uint256",
          "name": "",
          "type": "uint256"
        }
      ],
      "name": "contracts",
      "outputs": [
        {
          "internalType": "uint256",
          "name": "index",
          "type": "uint256"
        },
        {
          "internalType": "bool",
          "name": "status",
          "type": "bool"
        },
        {
          "internalType": "string",
          "name": "name",
          "type": "string"
        },
        {
          "internalType": "string",
          "name": "description",
          "type": "string"
        },
        {
          "internalType": "address",
          "name": "owner",
          "type": "address"
        },
        {
          "internalType": "string",
          "name": "link",
          "type": "string"
        }
      ],
      "stateMutability": "view",
      "type": "function"
    },
    {
      "inputs": [
        {
          "internalType": "address",
          "name": "_assignee",
          "type": "address"
        }
      ],
      "name": "getCompleteContracts",
      "outputs": [
        {
          "components": [
            {
              "internalType": "uint256",
              "name": "index",
              "type": "uint256"
            },
            {
              "internalType": "bool",
              "name": "status",
              "type": "bool"
            },
            {
              "internalType": "string",
              "name": "name",
              "type": "string"
            },
            {
              "internalType": "string",
              "name": "description",
              "type": "string"
            },
            {
              "internalType": "bool[]",
              "name": "assigns",
              "type": "bool[]"
            },
            {
              "internalType": "address",
              "name": "owner",
              "type": "address"
            },
            {
              "internalType": "address[]",
              "name": "assignee",
              "type": "address[]"
            },
            {
              "internalType": "string",
              "name": "link",
              "type": "string"
            }
          ],
          "internalType": "struct YourContract.contractR[]",
          "name": "",
          "type": "tuple[]"
        }
      ],
      "stateMutability": "view",
      "type": "function"
    },
    {
      "inputs": [
        {
          "internalType": "address",
          "name": "_assignee",
          "type": "address"
        }
      ],
      "name": "getContracts",
      "outputs": [
        {
          "components": [
            {
              "internalType": "uint256",
              "name": "index",
              "type": "uint256"
            },
            {
              "internalType": "bool",
              "name": "status",
              "type": "bool"
            },
            {
              "internalType": "string",
              "name": "name",
              "type": "string"
            },
            {
              "internalType": "string",
              "name": "description",
              "type": "string"
            },
            {
              "internalType": "bool[]",
              "name": "assigns",
              "type": "bool[]"
            },
            {
              "internalType": "address",
              "name": "owner",
              "type": "address"
            },
            {
              "internalType": "address[]",
              "name": "assignee",
              "type": "address[]"
            },
            {
              "internalType": "string",
              "name": "link",
              "type": "string"
            }
          ],
          "internalType": "struct YourContract.contractR[]",
          "name": "",
          "type": "tuple[]"
        }
      ],
      "stateMutability": "view",
      "type": "function"
    },
    {
      "inputs": [
        {
          "internalType": "address",
          "name": "_assignee",
          "type": "address"
        }
      ],
      "name": "getPendentContracts",
      "outputs": [
        {
          "components": [
            {
              "internalType": "uint256",
              "name": "index",
              "type": "uint256"
            },
            {
              "internalType": "bool",
              "name": "status",
              "type": "bool"
            },
            {
              "internalType": "string",
              "name": "name",
              "type": "string"
            },
            {
              "internalType": "string",
              "name": "description",
              "type": "string"
            },
            {
              "internalType": "bool[]",
              "name": "assigns",
              "type": "bool[]"
            },
            {
              "internalType": "address",
              "name": "owner",
              "type": "address"
            },
            {
              "internalType": "address[]",
              "name": "assignee",
              "type": "address[]"
            },
            {
              "internalType": "string",
              "name": "link",
              "type": "string"
            }
          ],
          "internalType": "struct YourContract.contractR[]",
          "name": "",
          "type": "tuple[]"
        }
      ],
      "stateMutability": "view",
      "type": "function"
    },
    {
      "inputs": [
        {
          "internalType": "address",
          "name": "",
          "type": "address"
        },
        {
          "internalType": "uint256",
          "name": "",
          "type": "uint256"
        }
      ],
      "name": "ownersContractList",
      "outputs": [
        {
          "internalType": "uint256",
          "name": "",
          "type": "uint256"
        }
      ],
      "stateMutability": "view",
      "type": "function"
    },
    {
      "inputs": [
        {
          "internalType": "address",
          "name": "_assignee",
          "type": "address"
        },
        {
          "internalType": "address",
          "name": "_owner",
          "type": "address"
        }
      ],
      "name": "verifyStatus",
      "outputs": [
        {
          "internalType": "bool",
          "name": "",
          "type": "bool"
        }
      ],
      "stateMutability": "view",
      "type": "function"
    }
  ],
  "transactionHash": "0xbf02855a551a55ec4230c2802223c8c98819eb8a9dc82a64d3761249e07622a2",
  "args": [],
  "numDeployments": 2,
  "solcInputHash": "04e1e3bcc7bb7ed3b13497e26b310334",
  "bytecode": "0x60806040526000805534801561001457600080fd5b50611f03806100246000396000f3fe608060405234801561001057600080fd5b50600436106100935760003560e01c80637beb94f3116100665780637beb94f31461011e5780638644326614610131578063acc861de14610152578063fcbeb19514610165578063fed83fe31461017857600080fd5b8063213fe2b714610098578063474da79a146100c15780634b0ce89d146100e657806374978457146100fb575b600080fd5b6100ab6100a63660046118a1565b61018b565b6040516100b8919061197f565b60405180910390f35b6100d46100cf366004611a8d565b61058a565b6040516100b896959493929190611aa6565b6100f96100f4366004611b09565b61076b565b005b61010e610109366004611b09565b610afe565b60405190151581526020016100b8565b6100ab61012c3660046118a1565b610c6b565b61014461013f366004611b3c565b61109e565b6040519081526020016100b8565b6100ab6101603660046118a1565b6110cf565b610144610173366004611b3c565b611501565b6100f9610186366004611c1d565b61151d565b6001600160a01b03811660009081526003602090815260408083208054825181850281018501909352808352606094938301828280156101ea57602002820191906000526020600020905b8154815260200190600101908083116101d6575b505050505090506000815167ffffffffffffffff81111561020d5761020d611b66565b60405190808252806020026020018201604052801561024657816020015b610233611726565b81526020019060019003908161022b5790505b50905060005b8251811015610582576001600084838151811061026b5761026b611d48565b6020026020010151815260200190815260200160002060405180610100016040529081600082015481526020016001820160009054906101000a900460ff161515151581526020016002820180546102c290611d5e565b80601f01602080910402602001604051908101604052809291908181526020018280546102ee90611d5e565b801561033b5780601f106103105761010080835404028352916020019161033b565b820191906000526020600020905b81548152906001019060200180831161031e57829003601f168201915b5050505050815260200160038201805461035490611d5e565b80601f016020809104026020016040519081016040528092919081815260200182805461038090611d5e565b80156103cd5780601f106103a2576101008083540402835291602001916103cd565b820191906000526020600020905b8154815290600101906020018083116103b057829003601f168201915b505050505081526020016004820180548060200260200160405190810160405280929190818152602001828054801561044557602002820191906000526020600020906000905b825461010083900a900460ff1615158152602060019283018181049485019490930390920291018084116104145790505b505050918352505060058201546001600160a01b031660208083019190915260068301805460408051828502810185018252828152940193928301828280156104b757602002820191906000526020600020905b81546001600160a01b03168152600190910190602001808311610499575b505050505081526020016007820180546104d090611d5e565b80601f01602080910402602001604051908101604052809291908181526020018280546104fc90611d5e565b80156105495780601f1061051e57610100808354040283529160200191610549565b820191906000526020600020905b81548152906001019060200180831161052c57829003601f168201915b50505050508152505082828151811061056457610564611d48565b6020026020010181905250808061057a90611d98565b91505061024c565b509392505050565b600160208190526000918252604090912080549181015460028201805460ff90921692916105b790611d5e565b80601f01602080910402602001604051908101604052809291908181526020018280546105e390611d5e565b80156106305780601f1061060557610100808354040283529160200191610630565b820191906000526020600020905b81548152906001019060200180831161061357829003601f168201915b50505050509080600301805461064590611d5e565b80601f016020809104026020016040519081016040528092919081815260200182805461067190611d5e565b80156106be5780601f10610693576101008083540402835291602001916106be565b820191906000526020600020905b8154815290600101906020018083116106a157829003601f168201915b505050600584015460078501805494956001600160a01b039092169491935091506106e890611d5e565b80601f016020809104026020016040519081016040528092919081815260200182805461071490611d5e565b80156107615780601f1061073657610100808354040283529160200191610761565b820191906000526020600020905b81548152906001019060200180831161074457829003601f168201915b5050505050905086565b6001600160a01b0382166000908152600360209081526040808320805482518185028101850190935280835291929091908301828280156107cb57602002820191906000526020600020905b8154815260200190600101908083116107b7575b50505050509050816001600160a01b0316836001600160a01b0316036109755760005b815181101561096f57836001600160a01b03166001600084848151811061081757610817611d48565b6020908102919091018101518252810191909152604001600020600501546001600160a01b03160361095d57600180600084848151811061085a5761085a611d48565b6020026020010151815260200190815260200160002060040160008154811061088557610885611d48565b90600052602060002090602091828204019190066101000a81548160ff021916908315150217905550600160008383815181106108c4576108c4611d48565b602002602001015181526020019081526020016000206004016001815481106108ef576108ef611d48565b90600052602060002090602091828204019190069054906101000a900460ff161561095d5760006001600084848151811061092c5761092c611d48565b6020026020010151815260200190815260200160002060010160006101000a81548160ff0219169083151502179055505b8061096781611d98565b9150506107ee565b50505050565b60005b815181101561096f57826001600160a01b0316600160008484815181106109a1576109a1611d48565b6020908102919091018101518252810191909152604001600020600501546001600160a01b031603610ae75760018060008484815181106109e4576109e4611d48565b60200260200101518152602001908152602001600020600401600181548110610a0f57610a0f611d48565b90600052602060002090602091828204019190066101000a81548160ff02191690831515021790555060016000838381518110610a4e57610a4e611d48565b60200260200101518152602001908152602001600020600401600081548110610a7957610a79611d48565b90600052602060002090602091828204019190069054906101000a900460ff1615610ae757600060016000848481518110610ab657610ab6611d48565b6020026020010151815260200190815260200160002060010160006101000a81548160ff0219169083151502179055505b80610af181611d98565b915050610978565b505050565b6001600160a01b038216600090815260036020908152604080832080548251818502810185019093528083528493830182828015610b5b57602002820191906000526020600020905b815481526020019060010190808311610b47575b5050505050905060005b8151811015610c5e57836001600160a01b031660016000848481518110610b8e57610b8e611d48565b6020908102919091018101518252810191909152604001600020600501546001600160a01b031603610c4c57836001600160a01b031660016000848481518110610bda57610bda611d48565b6020908102919091018101518252810191909152604001600020600501546001600160a01b031603610c4c5760016000838381518110610c1c57610c1c611d48565b6020026020010151815260200190815260200160002060010160009054906101000a900460ff1692505050610c65565b80610c5681611d98565b915050610b65565b5060019150505b92915050565b6001600160a01b0381166000908152600360209081526040808320805482518185028101850190935280835260609493830182828015610cca57602002820191906000526020600020905b815481526020019060010190808311610cb6575b505050505090506000815167ffffffffffffffff811115610ced57610ced611b66565b604051908082528060200260200182016040528015610d2657816020015b610d13611726565b815260200190600190039081610d0b5790505b50905060005b82518110156105825760016000848381518110610d4b57610d4b611d48565b60209081029190910181015182528101919091526040016000206001015460ff161561108c5760016000848381518110610d8757610d87611d48565b6020026020010151815260200190815260200160002060405180610100016040529081600082015481526020016001820160009054906101000a900460ff16151515158152602001600282018054610dde90611d5e565b80601f0160208091040260200160405190810160405280929190818152602001828054610e0a90611d5e565b8015610e575780601f10610e2c57610100808354040283529160200191610e57565b820191906000526020600020905b815481529060010190602001808311610e3a57829003601f168201915b50505050508152602001600382018054610e7090611d5e565b80601f0160208091040260200160405190810160405280929190818152602001828054610e9c90611d5e565b8015610ee95780601f10610ebe57610100808354040283529160200191610ee9565b820191906000526020600020905b815481529060010190602001808311610ecc57829003601f168201915b5050505050815260200160048201805480602002602001604051908101604052809291908181526020018280548015610f6157602002820191906000526020600020906000905b825461010083900a900460ff161515815260206001928301818104948501949093039092029101808411610f305790505b505050918352505060058201546001600160a01b03166020808301919091526006830180546040805182850281018501825282815294019392830182828015610fd357602002820191906000526020600020905b81546001600160a01b03168152600190910190602001808311610fb5575b50505050508152602001600782018054610fec90611d5e565b80601f016020809104026020016040519081016040528092919081815260200182805461101890611d5e565b80156110655780601f1061103a57610100808354040283529160200191611065565b820191906000526020600020905b81548152906001019060200180831161104857829003601f168201915b50505050508152505082828151811061108057611080611d48565b60200260200101819052505b8061109681611d98565b915050610d2c565b600360205281600052604060002081815481106110ba57600080fd5b90600052602060002001600091509150505481565b6001600160a01b038116600090815260036020908152604080832080548251818502810185019093528083526060949383018282801561112e57602002820191906000526020600020905b81548152602001906001019080831161111a575b505050505090506000815167ffffffffffffffff81111561115157611151611b66565b60405190808252806020026020018201604052801561118a57816020015b611177611726565b81526020019060019003908161116f5790505b50905060005b825181101561058257600160008483815181106111af576111af611d48565b60209081029190910181015182528101919091526040016000206001015460ff166114ef57600160008483815181106111ea576111ea611d48565b6020026020010151815260200190815260200160002060405180610100016040529081600082015481526020016001820160009054906101000a900460ff1615151515815260200160028201805461124190611d5e565b80601f016020809104026020016040519081016040528092919081815260200182805461126d90611d5e565b80156112ba5780601f1061128f576101008083540402835291602001916112ba565b820191906000526020600020905b81548152906001019060200180831161129d57829003601f168201915b505050505081526020016003820180546112d390611d5e565b80601f01602080910402602001604051908101604052809291908181526020018280546112ff90611d5e565b801561134c5780601f106113215761010080835404028352916020019161134c565b820191906000526020600020905b81548152906001019060200180831161132f57829003601f168201915b50505050508152602001600482018054806020026020016040519081016040528092919081815260200182805480156113c457602002820191906000526020600020906000905b825461010083900a900460ff1615158152602060019283018181049485019490930390920291018084116113935790505b505050918352505060058201546001600160a01b0316602080830191909152600683018054604080518285028101850182528281529401939283018282801561143657602002820191906000526020600020905b81546001600160a01b03168152600190910190602001808311611418575b5050505050815260200160078201805461144f90611d5e565b80601f016020809104026020016040519081016040528092919081815260200182805461147b90611d5e565b80156114c85780601f1061149d576101008083540402835291602001916114c8565b820191906000526020600020905b8154815290600101906020018083116114ab57829003601f168201915b5050505050815250508282815181106114e3576114e3611d48565b60200260200101819052505b806114f981611d98565b915050611190565b600260205281600052604060002081815481106110ba57600080fd5b60008054908061152c83611d98565b90915550506001600160a01b038516600081815260026020908152604080832083548154600181810184559286528486200155938352600382528220825481549485018255908352908220909201919091555b82518110156115e9576003600084838151811061159e5761159e611d48565b6020908102919091018101516001600160a01b0316825281810192909252604001600090812081548154600181018355918352929091200155806115e181611d98565b91505061157f565b506040805161010081018252600054815260016020820152808201869052606080820186905282516002808252918101909352909160808301918160200160208202803683370190505081526001600160a01b038716602080830191909152604080830186905260609092018490526000805481526001808352908390208451815591840151908201805460ff19169115159190911790559082015160028201906116949082611e0d565b50606082015160038201906116a99082611e0d565b50608082015180516116c5916004840191602090910190611776565b5060a08201516005820180546001600160a01b0319166001600160a01b0390921691909117905560c0820151805161170791600684019160209091019061181b565b5060e0820151600782019061171c9082611e0d565b5050505050505050565b6040518061010001604052806000815260200160001515815260200160608152602001606081526020016060815260200160006001600160a01b0316815260200160608152602001606081525090565b82805482825590600052602060002090601f0160209004810192821561180b5791602002820160005b838211156117dc57835183826101000a81548160ff021916908315150217905550926020019260010160208160000104928301926001030261179f565b80156118095782816101000a81549060ff02191690556001016020816000010492830192600103026117dc565b505b50611817929150611870565b5090565b82805482825590600052602060002090810192821561180b579160200282015b8281111561180b57825182546001600160a01b0319166001600160a01b0390911617825560209092019160019091019061183b565b5b808211156118175760008155600101611871565b80356001600160a01b038116811461189c57600080fd5b919050565b6000602082840312156118b357600080fd5b6118bc82611885565b9392505050565b6000815180845260005b818110156118e9576020818501810151868301820152016118cd565b506000602082860101526020601f19601f83011685010191505092915050565b600081518084526020808501945080840160005b8381101561193b57815115158752958201959082019060010161191d565b509495945050505050565b600081518084526020808501945080840160005b8381101561193b5781516001600160a01b03168752958201959082019060010161195a565b60006020808301818452808551808352604092508286019150828160051b87010184880160005b83811015611a7f57603f198984030185528151805184528781015115158885015286810151610100888601819052906119e1828701826118c3565b915050606080830151868303828801526119fb83826118c3565b9250505060808083015186830382880152611a168382611909565b9250505060a080830151611a34828801826001600160a01b03169052565b505060c08083015186830382880152611a4d8382611946565b9250505060e08083015192508582038187015250611a6b81836118c3565b9689019694505050908601906001016119a6565b509098975050505050505050565b600060208284031215611a9f57600080fd5b5035919050565b868152851515602082015260c060408201526000611ac760c08301876118c3565b8281036060840152611ad981876118c3565b6001600160a01b038616608085015283810360a08501529050611afc81856118c3565b9998505050505050505050565b60008060408385031215611b1c57600080fd5b611b2583611885565b9150611b3360208401611885565b90509250929050565b60008060408385031215611b4f57600080fd5b611b5883611885565b946020939093013593505050565b634e487b7160e01b600052604160045260246000fd5b604051601f8201601f1916810167ffffffffffffffff81118282101715611ba557611ba5611b66565b604052919050565b600082601f830112611bbe57600080fd5b813567ffffffffffffffff811115611bd857611bd8611b66565b611beb601f8201601f1916602001611b7c565b818152846020838601011115611c0057600080fd5b816020850160208301376000918101602001919091529392505050565b600080600080600060a08688031215611c3557600080fd5b611c3e86611885565b945060208087013567ffffffffffffffff80821115611c5c57600080fd5b611c688a838b01611bad565b96506040890135915080821115611c7e57600080fd5b611c8a8a838b01611bad565b95506060890135915080821115611ca057600080fd5b818901915089601f830112611cb457600080fd5b813581811115611cc657611cc6611b66565b8060051b611cd5858201611b7c565b918252838101850191858101908d841115611cef57600080fd5b948601945b83861015611d1457611d0586611885565b82529486019490860190611cf4565b97505050506080890135925080831115611d2d57600080fd5b5050611d3b88828901611bad565b9150509295509295909350565b634e487b7160e01b600052603260045260246000fd5b600181811c90821680611d7257607f821691505b602082108103611d9257634e487b7160e01b600052602260045260246000fd5b50919050565b600060018201611db857634e487b7160e01b600052601160045260246000fd5b5060010190565b601f821115610af957600081815260208120601f850160051c81016020861015611de65750805b601f850160051c820191505b81811015611e0557828155600101611df2565b505050505050565b815167ffffffffffffffff811115611e2757611e27611b66565b611e3b81611e358454611d5e565b84611dbf565b602080601f831160018114611e705760008415611e585750858301515b600019600386901b1c1916600185901b178555611e05565b600085815260208120601f198616915b82811015611e9f57888601518255948401946001909101908401611e80565b5085821015611ebd5787850151600019600388901b60f8161c191681555b5050505050600190811b0190555056fea2646970667358221220e669c4691c7ad39da587127d5304ba898a8ae35635373befad1690c16a01010a64736f6c63430008110033",
  "devdoc": {
    "author": "BuidlGuidl",
    "kind": "dev",
    "methods": {},
    "version": 1
  },
  "userdoc": {
    "kind": "user",
    "methods": {},
    "notice": "A smart contract that allows changing a state variable of the contract and tracking the changes It also allows the owner to withdraw the Ether in the contract",
    "version": 1
  },
  "storageLayout": {
    "storage": [
      {
        "astId": 6,
        "contract": "contracts/YourContract.sol:YourContract",
        "label": "indexContract",
        "offset": 0,
        "slot": "0",
        "type": "t_uint256"
      },
      {
        "astId": 30,
        "contract": "contracts/YourContract.sol:YourContract",
        "label": "contracts",
        "offset": 0,
        "slot": "1",
        "type": "t_mapping(t_uint256,t_struct(contractR)25_storage)"
      },
      {
        "astId": 35,
        "contract": "contracts/YourContract.sol:YourContract",
        "label": "ownersContractList",
        "offset": 0,
        "slot": "2",
        "type": "t_mapping(t_address,t_array(t_uint256)dyn_storage)"
      },
      {
        "astId": 40,
        "contract": "contracts/YourContract.sol:YourContract",
        "label": "assigneesContractList",
        "offset": 0,
        "slot": "3",
        "type": "t_mapping(t_address,t_array(t_uint256)dyn_storage)"
      }
    ],
    "types": {
      "t_address": {
        "encoding": "inplace",
        "label": "address",
        "numberOfBytes": "20"
      },
      "t_array(t_address)dyn_storage": {
        "base": "t_address",
        "encoding": "dynamic_array",
        "label": "address[]",
        "numberOfBytes": "32"
      },
      "t_array(t_bool)dyn_storage": {
        "base": "t_bool",
        "encoding": "dynamic_array",
        "label": "bool[]",
        "numberOfBytes": "32"
      },
      "t_array(t_uint256)dyn_storage": {
        "base": "t_uint256",
        "encoding": "dynamic_array",
        "label": "uint256[]",
        "numberOfBytes": "32"
      },
      "t_bool": {
        "encoding": "inplace",
        "label": "bool",
        "numberOfBytes": "1"
      },
      "t_mapping(t_address,t_array(t_uint256)dyn_storage)": {
        "encoding": "mapping",
        "key": "t_address",
        "label": "mapping(address => uint256[])",
        "numberOfBytes": "32",
        "value": "t_array(t_uint256)dyn_storage"
      },
      "t_mapping(t_uint256,t_struct(contractR)25_storage)": {
        "encoding": "mapping",
        "key": "t_uint256",
        "label": "mapping(uint256 => struct YourContract.contractR)",
        "numberOfBytes": "32",
        "value": "t_struct(contractR)25_storage"
      },
      "t_string_storage": {
        "encoding": "bytes",
        "label": "string",
        "numberOfBytes": "32"
      },
      "t_struct(contractR)25_storage": {
        "encoding": "inplace",
        "label": "struct YourContract.contractR",
        "members": [
          {
            "astId": 8,
            "contract": "contracts/YourContract.sol:YourContract",
            "label": "index",
            "offset": 0,
            "slot": "0",
            "type": "t_uint256"
          },
          {
            "astId": 10,
            "contract": "contracts/YourContract.sol:YourContract",
            "label": "status",
            "offset": 0,
            "slot": "1",
            "type": "t_bool"
          },
          {
            "astId": 12,
            "contract": "contracts/YourContract.sol:YourContract",
            "label": "name",
            "offset": 0,
            "slot": "2",
            "type": "t_string_storage"
          },
          {
            "astId": 14,
            "contract": "contracts/YourContract.sol:YourContract",
            "label": "description",
            "offset": 0,
            "slot": "3",
            "type": "t_string_storage"
          },
          {
            "astId": 17,
            "contract": "contracts/YourContract.sol:YourContract",
            "label": "assigns",
            "offset": 0,
            "slot": "4",
            "type": "t_array(t_bool)dyn_storage"
          },
          {
            "astId": 19,
            "contract": "contracts/YourContract.sol:YourContract",
            "label": "owner",
            "offset": 0,
            "slot": "5",
            "type": "t_address"
          },
          {
            "astId": 22,
            "contract": "contracts/YourContract.sol:YourContract",
            "label": "assignee",
            "offset": 0,
            "slot": "6",
            "type": "t_array(t_address)dyn_storage"
          },
          {
            "astId": 24,
            "contract": "contracts/YourContract.sol:YourContract",
            "label": "link",
            "offset": 0,
            "slot": "7",
            "type": "t_string_storage"
          }
        ],
        "numberOfBytes": "256"
      },
      "t_uint256": {
        "encoding": "inplace",
        "label": "uint256",
        "numberOfBytes": "32"
      }
    }
  }
}