{
  "address": "0x88f2bA8b39f90E79641BCC4608743ABC0dC52324",
  "abi": [
    {
      "inputs": [
        {
          "internalType": "address",
          "name": "_owner",
          "type": "address"
        },
        {
          "internalType": "string",
          "name": "_name",
          "type": "string"
        },
        {
          "internalType": "string",
          "name": "_description",
          "type": "string"
        },
        {
          "internalType": "address[]",
          "name": "_assignees",
          "type": "address[]"
        },
        {
          "internalType": "string",
          "name": "_link",
          "type": "string"
        }
      ],
      "name": "addContract",
      "outputs": [],
      "stateMutability": "nonpayable",
      "type": "function"
    },
    {
      "inputs": [
        {
          "internalType": "address",
          "name": "_assignee",
          "type": "address"
        },
        {
          "internalType": "address",
          "name": "_owner",
          "type": "address"
        }
      ],
      "name": "assignContract",
      "outputs": [],
      "stateMutability": "nonpayable",
      "type": "function"
    },
    {
      "inputs": [
        {
          "internalType": "address",
          "name": "",
          "type": "address"
        },
        {
          "internalType": "uint256",
          "name": "",
          "type": "uint256"
        }
      ],
      "name": "assigneesContractList",
      "outputs": [
        {
          "internalType": "uint256",
          "name": "",
          "type": "uint256"
        }
      ],
      "stateMutability": "view",
      "type": "function"
    },
    {
      "inputs": [
        {
          "internalType": "uint256",
          "name": "",
          "type": "uint256"
        }
      ],
      "name": "contracts",
      "outputs": [
        {
          "internalType": "uint256",
          "name": "index",
          "type": "uint256"
        },
        {
          "internalType": "bool",
          "name": "status",
          "type": "bool"
        },
        {
          "internalType": "string",
          "name": "name",
          "type": "string"
        },
        {
          "internalType": "string",
          "name": "description",
          "type": "string"
        },
        {
          "internalType": "address",
          "name": "owner",
          "type": "address"
        },
        {
          "internalType": "string",
          "name": "link",
          "type": "string"
        },
        {
          "internalType": "uint256",
          "name": "countSignatures",
          "type": "uint256"
        }
      ],
      "stateMutability": "view",
      "type": "function"
    },
    {
      "inputs": [
        {
          "internalType": "address",
          "name": "_assignee",
          "type": "address"
        }
      ],
      "name": "getCompleteContracts",
      "outputs": [
        {
          "components": [
            {
              "internalType": "uint256",
              "name": "index",
              "type": "uint256"
            },
            {
              "internalType": "bool",
              "name": "status",
              "type": "bool"
            },
            {
              "internalType": "string",
              "name": "name",
              "type": "string"
            },
            {
              "internalType": "string",
              "name": "description",
              "type": "string"
            },
            {
              "internalType": "bool[]",
              "name": "assigns",
              "type": "bool[]"
            },
            {
              "internalType": "address",
              "name": "owner",
              "type": "address"
            },
            {
              "internalType": "address[]",
              "name": "assignee",
              "type": "address[]"
            },
            {
              "internalType": "string",
              "name": "link",
              "type": "string"
            },
            {
              "internalType": "uint256",
              "name": "countSignatures",
              "type": "uint256"
            }
          ],
          "internalType": "struct YourContract.contractR[]",
          "name": "",
          "type": "tuple[]"
        }
      ],
      "stateMutability": "view",
      "type": "function"
    },
    {
      "inputs": [
        {
          "internalType": "address",
          "name": "_assignee",
          "type": "address"
        }
      ],
      "name": "getContracts",
      "outputs": [
        {
          "components": [
            {
              "internalType": "uint256",
              "name": "index",
              "type": "uint256"
            },
            {
              "internalType": "bool",
              "name": "status",
              "type": "bool"
            },
            {
              "internalType": "string",
              "name": "name",
              "type": "string"
            },
            {
              "internalType": "string",
              "name": "description",
              "type": "string"
            },
            {
              "internalType": "bool[]",
              "name": "assigns",
              "type": "bool[]"
            },
            {
              "internalType": "address",
              "name": "owner",
              "type": "address"
            },
            {
              "internalType": "address[]",
              "name": "assignee",
              "type": "address[]"
            },
            {
              "internalType": "string",
              "name": "link",
              "type": "string"
            },
            {
              "internalType": "uint256",
              "name": "countSignatures",
              "type": "uint256"
            }
          ],
          "internalType": "struct YourContract.contractR[]",
          "name": "",
          "type": "tuple[]"
        }
      ],
      "stateMutability": "view",
      "type": "function"
    },
    {
      "inputs": [
        {
          "internalType": "address",
          "name": "_assignee",
          "type": "address"
        }
      ],
      "name": "getPendentContracts",
      "outputs": [
        {
          "components": [
            {
              "internalType": "uint256",
              "name": "index",
              "type": "uint256"
            },
            {
              "internalType": "bool",
              "name": "status",
              "type": "bool"
            },
            {
              "internalType": "string",
              "name": "name",
              "type": "string"
            },
            {
              "internalType": "string",
              "name": "description",
              "type": "string"
            },
            {
              "internalType": "bool[]",
              "name": "assigns",
              "type": "bool[]"
            },
            {
              "internalType": "address",
              "name": "owner",
              "type": "address"
            },
            {
              "internalType": "address[]",
              "name": "assignee",
              "type": "address[]"
            },
            {
              "internalType": "string",
              "name": "link",
              "type": "string"
            },
            {
              "internalType": "uint256",
              "name": "countSignatures",
              "type": "uint256"
            }
          ],
          "internalType": "struct YourContract.contractR[]",
          "name": "",
          "type": "tuple[]"
        }
      ],
      "stateMutability": "view",
      "type": "function"
    },
    {
      "inputs": [
        {
          "internalType": "address",
          "name": "",
          "type": "address"
        },
        {
          "internalType": "uint256",
          "name": "",
          "type": "uint256"
        }
      ],
      "name": "ownersContractList",
      "outputs": [
        {
          "internalType": "uint256",
          "name": "",
          "type": "uint256"
        }
      ],
      "stateMutability": "view",
      "type": "function"
    },
    {
      "inputs": [
        {
          "internalType": "address",
          "name": "_assignee",
          "type": "address"
        },
        {
          "internalType": "address",
          "name": "_owner",
          "type": "address"
        }
      ],
      "name": "verifyStatus",
      "outputs": [
        {
          "internalType": "bool",
          "name": "",
          "type": "bool"
        }
      ],
      "stateMutability": "view",
      "type": "function"
    }
  ],
  "transactionHash": "0xb1ed167707ff8bfd9b2a440373b79d1fb07ebe4902486ea004f570afd5267246",
  "args": [],
  "numDeployments": 1,
  "solcInputHash": "7ed5cdaed9fdfed21d38aed4ec33f54b",
  "bytecode": "0x60806040526000805534801561001457600080fd5b50612030806100246000396000f3fe608060405234801561001057600080fd5b50600436106100935760003560e01c80637beb94f3116100665780637beb94f31461011f5780638644326614610132578063acc861de14610153578063fcbeb19514610166578063fed83fe31461017957600080fd5b8063213fe2b714610098578063474da79a146100c15780634b0ce89d146100e757806374978457146100fc575b600080fd5b6100ab6100a636600461199f565b61018c565b6040516100b89190611a7d565b60405180910390f35b6100d46100cf366004611b97565b610595565b6040516100b89796959493929190611bb0565b6100fa6100f5366004611c1b565b61077c565b005b61010f61010a366004611c1b565b610b9d565b60405190151581526020016100b8565b6100ab61012d36600461199f565b610d0a565b610145610140366004611c4e565b611147565b6040519081526020016100b8565b6100ab61016136600461199f565b611178565b610145610174366004611c4e565b6115b4565b6100fa610187366004611d2f565b6115d0565b6001600160a01b03811660009081526003602090815260408083208054825181850281018501909352808352606094938301828280156101eb57602002820191906000526020600020905b8154815260200190600101908083116101d7575b505050505090506000815167ffffffffffffffff81111561020e5761020e611c78565b60405190808252806020026020018201604052801561024757816020015b61023461181d565b81526020019060019003908161022c5790505b50905060005b825181101561058d576001600084838151811061026c5761026c611e5a565b6020026020010151815260200190815260200160002060405180610120016040529081600082015481526020016001820160009054906101000a900460ff161515151581526020016002820180546102c390611e70565b80601f01602080910402602001604051908101604052809291908181526020018280546102ef90611e70565b801561033c5780601f106103115761010080835404028352916020019161033c565b820191906000526020600020905b81548152906001019060200180831161031f57829003601f168201915b5050505050815260200160038201805461035590611e70565b80601f016020809104026020016040519081016040528092919081815260200182805461038190611e70565b80156103ce5780601f106103a3576101008083540402835291602001916103ce565b820191906000526020600020905b8154815290600101906020018083116103b157829003601f168201915b505050505081526020016004820180548060200260200160405190810160405280929190818152602001828054801561044657602002820191906000526020600020906000905b825461010083900a900460ff1615158152602060019283018181049485019490930390920291018084116104155790505b505050918352505060058201546001600160a01b031660208083019190915260068301805460408051828502810185018252828152940193928301828280156104b857602002820191906000526020600020905b81546001600160a01b0316815260019091019060200180831161049a575b505050505081526020016007820180546104d190611e70565b80601f01602080910402602001604051908101604052809291908181526020018280546104fd90611e70565b801561054a5780601f1061051f5761010080835404028352916020019161054a565b820191906000526020600020905b81548152906001019060200180831161052d57829003601f168201915b5050505050815260200160088201548152505082828151811061056f5761056f611e5a565b6020026020010181905250808061058590611ec0565b91505061024d565b509392505050565b600160208190526000918252604090912080549181015460028201805460ff90921692916105c290611e70565b80601f01602080910402602001604051908101604052809291908181526020018280546105ee90611e70565b801561063b5780601f106106105761010080835404028352916020019161063b565b820191906000526020600020905b81548152906001019060200180831161061e57829003601f168201915b50505050509080600301805461065090611e70565b80601f016020809104026020016040519081016040528092919081815260200182805461067c90611e70565b80156106c95780601f1061069e576101008083540402835291602001916106c9565b820191906000526020600020905b8154815290600101906020018083116106ac57829003601f168201915b505050600584015460078501805494956001600160a01b039092169491935091506106f390611e70565b80601f016020809104026020016040519081016040528092919081815260200182805461071f90611e70565b801561076c5780601f106107415761010080835404028352916020019161076c565b820191906000526020600020905b81548152906001019060200180831161074f57829003601f168201915b5050505050908060080154905087565b6001600160a01b0382166000908152600360209081526040808320805482518185028101850190935280835291929091908301828280156107dc57602002820191906000526020600020905b8154815260200190600101908083116107c8575b50505050509050816001600160a01b0316836001600160a01b0316036109cd5760005b81518110156109c757836001600160a01b03166001600084848151811061082857610828611e5a565b6020908102919091018101518252810191909152604001600020600501546001600160a01b0316036109b557600180600084848151811061086b5761086b611e5a565b6020026020010151815260200190815260200160002060040160008154811061089657610896611e5a565b90600052602060002090602091828204019190066101000a81548160ff021916908315150217905550600160008383815181106108d5576108d5611e5a565b6020026020010151815260200190815260200160002060080160008154809291906108ff90611ec0565b91905055506001600083838151811061091a5761091a611e5a565b60200260200101518152602001908152602001600020600801546001600084848151811061094a5761094a611e5a565b6020026020010151815260200190815260200160002060040180549050036109b55760006001600084848151811061098457610984611e5a565b6020026020010151815260200190815260200160002060010160006101000a81548160ff0219169083151502179055505b806109bf81611ec0565b9150506107ff565b50505050565b60005b81518110156109c757826001600160a01b0316600160008484815181106109f9576109f9611e5a565b6020908102919091018101518252810191909152604001600020600501546001600160a01b031603610b86576001806000848481518110610a3c57610a3c611e5a565b60200260200101518152602001908152602001600020600401600181548110610a6757610a67611e5a565b90600052602060002090602091828204019190066101000a81548160ff02191690831515021790555060016000838381518110610aa657610aa6611e5a565b602002602001015181526020019081526020016000206008016000815480929190610ad090611ec0565b919050555060016000838381518110610aeb57610aeb611e5a565b602002602001015181526020019081526020016000206008015460016000848481518110610b1b57610b1b611e5a565b602002602001015181526020019081526020016000206004018054905003610b8657600060016000848481518110610b5557610b55611e5a565b6020026020010151815260200190815260200160002060010160006101000a81548160ff0219169083151502179055505b80610b9081611ec0565b9150506109d0565b505050565b6001600160a01b038216600090815260036020908152604080832080548251818502810185019093528083528493830182828015610bfa57602002820191906000526020600020905b815481526020019060010190808311610be6575b5050505050905060005b8151811015610cfd57836001600160a01b031660016000848481518110610c2d57610c2d611e5a565b6020908102919091018101518252810191909152604001600020600501546001600160a01b031603610ceb57836001600160a01b031660016000848481518110610c7957610c79611e5a565b6020908102919091018101518252810191909152604001600020600501546001600160a01b031603610ceb5760016000838381518110610cbb57610cbb611e5a565b6020026020010151815260200190815260200160002060010160009054906101000a900460ff1692505050610d04565b80610cf581611ec0565b915050610c04565b5060019150505b92915050565b6001600160a01b0381166000908152600360209081526040808320805482518185028101850190935280835260609493830182828015610d6957602002820191906000526020600020905b815481526020019060010190808311610d55575b505050505090506000815167ffffffffffffffff811115610d8c57610d8c611c78565b604051908082528060200260200182016040528015610dc557816020015b610db261181d565b815260200190600190039081610daa5790505b50905060005b825181101561058d5760016000848381518110610dea57610dea611e5a565b60209081029190910181015182528101919091526040016000206001015460ff16156111355760016000848381518110610e2657610e26611e5a565b6020026020010151815260200190815260200160002060405180610120016040529081600082015481526020016001820160009054906101000a900460ff16151515158152602001600282018054610e7d90611e70565b80601f0160208091040260200160405190810160405280929190818152602001828054610ea990611e70565b8015610ef65780601f10610ecb57610100808354040283529160200191610ef6565b820191906000526020600020905b815481529060010190602001808311610ed957829003601f168201915b50505050508152602001600382018054610f0f90611e70565b80601f0160208091040260200160405190810160405280929190818152602001828054610f3b90611e70565b8015610f885780601f10610f5d57610100808354040283529160200191610f88565b820191906000526020600020905b815481529060010190602001808311610f6b57829003601f168201915b505050505081526020016004820180548060200260200160405190810160405280929190818152602001828054801561100057602002820191906000526020600020906000905b825461010083900a900460ff161515815260206001928301818104948501949093039092029101808411610fcf5790505b505050918352505060058201546001600160a01b0316602080830191909152600683018054604080518285028101850182528281529401939283018282801561107257602002820191906000526020600020905b81546001600160a01b03168152600190910190602001808311611054575b5050505050815260200160078201805461108b90611e70565b80601f01602080910402602001604051908101604052809291908181526020018280546110b790611e70565b80156111045780601f106110d957610100808354040283529160200191611104565b820191906000526020600020905b8154815290600101906020018083116110e757829003601f168201915b5050505050815260200160088201548152505082828151811061112957611129611e5a565b60200260200101819052505b8061113f81611ec0565b915050610dcb565b6003602052816000526040600020818154811061116357600080fd5b90600052602060002001600091509150505481565b6001600160a01b03811660009081526003602090815260408083208054825181850281018501909352808352606094938301828280156111d757602002820191906000526020600020905b8154815260200190600101908083116111c3575b505050505090506000815167ffffffffffffffff8111156111fa576111fa611c78565b60405190808252806020026020018201604052801561123357816020015b61122061181d565b8152602001906001900390816112185790505b50905060005b825181101561058d576001600084838151811061125857611258611e5a565b60209081029190910181015182528101919091526040016000206001015460ff166115a2576001600084838151811061129357611293611e5a565b6020026020010151815260200190815260200160002060405180610120016040529081600082015481526020016001820160009054906101000a900460ff161515151581526020016002820180546112ea90611e70565b80601f016020809104026020016040519081016040528092919081815260200182805461131690611e70565b80156113635780601f1061133857610100808354040283529160200191611363565b820191906000526020600020905b81548152906001019060200180831161134657829003601f168201915b5050505050815260200160038201805461137c90611e70565b80601f01602080910402602001604051908101604052809291908181526020018280546113a890611e70565b80156113f55780601f106113ca576101008083540402835291602001916113f5565b820191906000526020600020905b8154815290600101906020018083116113d857829003601f168201915b505050505081526020016004820180548060200260200160405190810160405280929190818152602001828054801561146d57602002820191906000526020600020906000905b825461010083900a900460ff16151581526020600192830181810494850194909303909202910180841161143c5790505b505050918352505060058201546001600160a01b031660208083019190915260068301805460408051828502810185018252828152940193928301828280156114df57602002820191906000526020600020905b81546001600160a01b031681526001909101906020018083116114c1575b505050505081526020016007820180546114f890611e70565b80601f016020809104026020016040519081016040528092919081815260200182805461152490611e70565b80156115715780601f1061154657610100808354040283529160200191611571565b820191906000526020600020905b81548152906001019060200180831161155457829003601f168201915b5050505050815260200160088201548152505082828151811061159657611596611e5a565b60200260200101819052505b806115ac81611ec0565b915050611239565b6002602052816000526040600020818154811061116357600080fd5b6000805490806115df83611ec0565b90915550506001600160a01b038516600081815260026020908152604080832083548154600181810184559286528486200155938352600382528220825481549485018255908352908220909201919091555b825181101561169c576003600084838151811061165157611651611e5a565b6020908102919091018101516001600160a01b03168252818101929092526040016000908120815481546001810183559183529290912001558061169481611ec0565b915050611632565b506040518061012001604052806000548152602001600115158152602001858152602001848152602001835160016116d49190611ed9565b67ffffffffffffffff8111156116ec576116ec611c78565b604051908082528060200260200182016040528015611715578160200160208202803683370190505b5081526001600160a01b03871660208083019190915260408083018690526060830185905260006080909301839052825483526001808352928190208451815591840151928201805460ff19169315159390931790925590820151600282019061177f9082611f3a565b50606082015160038201906117949082611f3a565b50608082015180516117b0916004840191602090910190611874565b5060a08201516005820180546001600160a01b0319166001600160a01b0390921691909117905560c082015180516117f2916006840191602090910190611919565b5060e082015160078201906118079082611f3a565b5061010082015181600801559050505050505050565b6040518061012001604052806000815260200160001515815260200160608152602001606081526020016060815260200160006001600160a01b031681526020016060815260200160608152602001600081525090565b82805482825590600052602060002090601f016020900481019282156119095791602002820160005b838211156118da57835183826101000a81548160ff021916908315150217905550926020019260010160208160000104928301926001030261189d565b80156119075782816101000a81549060ff02191690556001016020816000010492830192600103026118da565b505b5061191592915061196e565b5090565b828054828255906000526020600020908101928215611909579160200282015b8281111561190957825182546001600160a01b0319166001600160a01b03909116178255602090920191600190910190611939565b5b80821115611915576000815560010161196f565b80356001600160a01b038116811461199a57600080fd5b919050565b6000602082840312156119b157600080fd5b6119ba82611983565b9392505050565b6000815180845260005b818110156119e7576020818501810151868301820152016119cb565b506000602082860101526020601f19601f83011685010191505092915050565b600081518084526020808501945080840160005b83811015611a39578151151587529582019590820190600101611a1b565b509495945050505050565b600081518084526020808501945080840160005b83811015611a395781516001600160a01b031687529582019590820190600101611a58565b60006020808301818452808551808352604092508286019150828160051b87010184880160005b83811015611b8957603f19898403018552815180518452878101511515888501528681015161012088860181905290611adf828701826119c1565b91505060608083015186830382880152611af983826119c1565b9250505060808083015186830382880152611b148382611a07565b9250505060a080830151611b32828801826001600160a01b03169052565b505060c08083015186830382880152611b4b8382611a44565b9250505060e08083015186830382880152611b6683826119c1565b610100948501519790940196909652505094870194925090860190600101611aa4565b509098975050505050505050565b600060208284031215611ba957600080fd5b5035919050565b878152861515602082015260e060408201526000611bd160e08301886119c1565b8281036060840152611be381886119c1565b6001600160a01b038716608085015283810360a08501529050611c0681866119c1565b9150508260c083015298975050505050505050565b60008060408385031215611c2e57600080fd5b611c3783611983565b9150611c4560208401611983565b90509250929050565b60008060408385031215611c6157600080fd5b611c6a83611983565b946020939093013593505050565b634e487b7160e01b600052604160045260246000fd5b604051601f8201601f1916810167ffffffffffffffff81118282101715611cb757611cb7611c78565b604052919050565b600082601f830112611cd057600080fd5b813567ffffffffffffffff811115611cea57611cea611c78565b611cfd601f8201601f1916602001611c8e565b818152846020838601011115611d1257600080fd5b816020850160208301376000918101602001919091529392505050565b600080600080600060a08688031215611d4757600080fd5b611d5086611983565b945060208087013567ffffffffffffffff80821115611d6e57600080fd5b611d7a8a838b01611cbf565b96506040890135915080821115611d9057600080fd5b611d9c8a838b01611cbf565b95506060890135915080821115611db257600080fd5b818901915089601f830112611dc657600080fd5b813581811115611dd857611dd8611c78565b8060051b611de7858201611c8e565b918252838101850191858101908d841115611e0157600080fd5b948601945b83861015611e2657611e1786611983565b82529486019490860190611e06565b97505050506080890135925080831115611e3f57600080fd5b5050611e4d88828901611cbf565b9150509295509295909350565b634e487b7160e01b600052603260045260246000fd5b600181811c90821680611e8457607f821691505b602082108103611ea457634e487b7160e01b600052602260045260246000fd5b50919050565b634e487b7160e01b600052601160045260246000fd5b600060018201611ed257611ed2611eaa565b5060010190565b80820180821115610d0457610d04611eaa565b601f821115610b9857600081815260208120601f850160051c81016020861015611f135750805b601f850160051c820191505b81811015611f3257828155600101611f1f565b505050505050565b815167ffffffffffffffff811115611f5457611f54611c78565b611f6881611f628454611e70565b84611eec565b602080601f831160018114611f9d5760008415611f855750858301515b600019600386901b1c1916600185901b178555611f32565b600085815260208120601f198616915b82811015611fcc57888601518255948401946001909101908401611fad565b5085821015611fea5787850151600019600388901b60f8161c191681555b5050505050600190811b0190555056fea264697066735822122029e06dbc8ea369ba415d63aa69e45b94bda8b7f7a4ffe0542ee131780128aafc64736f6c63430008110033",
  "devdoc": {
    "author": "BuidlGuidl",
    "kind": "dev",
    "methods": {},
    "version": 1
  },
  "userdoc": {
    "kind": "user",
    "methods": {},
    "notice": "A smart contract that allows changing a state variable of the contract and tracking the changes It also allows the owner to withdraw the Ether in the contract",
    "version": 1
  },
  "storageLayout": {
    "storage": [
      {
        "astId": 6,
        "contract": "contracts/YourContract.sol:YourContract",
        "label": "indexContract",
        "offset": 0,
        "slot": "0",
        "type": "t_uint256"
      },
      {
        "astId": 32,
        "contract": "contracts/YourContract.sol:YourContract",
        "label": "contracts",
        "offset": 0,
        "slot": "1",
        "type": "t_mapping(t_uint256,t_struct(contractR)27_storage)"
      },
      {
        "astId": 37,
        "contract": "contracts/YourContract.sol:YourContract",
        "label": "ownersContractList",
        "offset": 0,
        "slot": "2",
        "type": "t_mapping(t_address,t_array(t_uint256)dyn_storage)"
      },
      {
        "astId": 42,
        "contract": "contracts/YourContract.sol:YourContract",
        "label": "assigneesContractList",
        "offset": 0,
        "slot": "3",
        "type": "t_mapping(t_address,t_array(t_uint256)dyn_storage)"
      }
    ],
    "types": {
      "t_address": {
        "encoding": "inplace",
        "label": "address",
        "numberOfBytes": "20"
      },
      "t_array(t_address)dyn_storage": {
        "base": "t_address",
        "encoding": "dynamic_array",
        "label": "address[]",
        "numberOfBytes": "32"
      },
      "t_array(t_bool)dyn_storage": {
        "base": "t_bool",
        "encoding": "dynamic_array",
        "label": "bool[]",
        "numberOfBytes": "32"
      },
      "t_array(t_uint256)dyn_storage": {
        "base": "t_uint256",
        "encoding": "dynamic_array",
        "label": "uint256[]",
        "numberOfBytes": "32"
      },
      "t_bool": {
        "encoding": "inplace",
        "label": "bool",
        "numberOfBytes": "1"
      },
      "t_mapping(t_address,t_array(t_uint256)dyn_storage)": {
        "encoding": "mapping",
        "key": "t_address",
        "label": "mapping(address => uint256[])",
        "numberOfBytes": "32",
        "value": "t_array(t_uint256)dyn_storage"
      },
      "t_mapping(t_uint256,t_struct(contractR)27_storage)": {
        "encoding": "mapping",
        "key": "t_uint256",
        "label": "mapping(uint256 => struct YourContract.contractR)",
        "numberOfBytes": "32",
        "value": "t_struct(contractR)27_storage"
      },
      "t_string_storage": {
        "encoding": "bytes",
        "label": "string",
        "numberOfBytes": "32"
      },
      "t_struct(contractR)27_storage": {
        "encoding": "inplace",
        "label": "struct YourContract.contractR",
        "members": [
          {
            "astId": 8,
            "contract": "contracts/YourContract.sol:YourContract",
            "label": "index",
            "offset": 0,
            "slot": "0",
            "type": "t_uint256"
          },
          {
            "astId": 10,
            "contract": "contracts/YourContract.sol:YourContract",
            "label": "status",
            "offset": 0,
            "slot": "1",
            "type": "t_bool"
          },
          {
            "astId": 12,
            "contract": "contracts/YourContract.sol:YourContract",
            "label": "name",
            "offset": 0,
            "slot": "2",
            "type": "t_string_storage"
          },
          {
            "astId": 14,
            "contract": "contracts/YourContract.sol:YourContract",
            "label": "description",
            "offset": 0,
            "slot": "3",
            "type": "t_string_storage"
          },
          {
            "astId": 17,
            "contract": "contracts/YourContract.sol:YourContract",
            "label": "assigns",
            "offset": 0,
            "slot": "4",
            "type": "t_array(t_bool)dyn_storage"
          },
          {
            "astId": 19,
            "contract": "contracts/YourContract.sol:YourContract",
            "label": "owner",
            "offset": 0,
            "slot": "5",
            "type": "t_address"
          },
          {
            "astId": 22,
            "contract": "contracts/YourContract.sol:YourContract",
            "label": "assignee",
            "offset": 0,
            "slot": "6",
            "type": "t_array(t_address)dyn_storage"
          },
          {
            "astId": 24,
            "contract": "contracts/YourContract.sol:YourContract",
            "label": "link",
            "offset": 0,
            "slot": "7",
            "type": "t_string_storage"
          },
          {
            "astId": 26,
            "contract": "contracts/YourContract.sol:YourContract",
            "label": "countSignatures",
            "offset": 0,
            "slot": "8",
            "type": "t_uint256"
          }
        ],
        "numberOfBytes": "288"
      },
      "t_uint256": {
        "encoding": "inplace",
        "label": "uint256",
        "numberOfBytes": "32"
      }
    }
  }
}